:020000040000FA
:030000000200D328
:03003B000223534A
:03004B000212CAD4
:030063000213A0E5
:10008300021A5D00000080FB1200E2B900030200C7
:10009300CDE490F1FF787779028002F0A3D8FCD900
:1000A300FA90F375AA82AB839000E5781979028000
:1000B30015E493A3AC82AD838A828B83F0A3AA82D7
:1000C300AB838C828D83D8E9D9E712150E12008693
:1000D30075D0007581BF7510FF7511F102008B7922
:1000E3000122000000000D0A5258203863682046A0
:1000F300485353203A20000D0A7720000D0A466129
:10010300696C536166650D0A000D0A462F5320760C
:10011300616C756573203A2000253464000D0A0074
:100123000D0A52782043483A2000DC05DC05E80339
:10013300DC05E803E803E803E803DC05DC05E80382
:10014300DC05E803E803E803E8030901110A5C9D01
:100153000600009600000000503F0D0A6368616EC0
:100163006E656C5F6D6170203A20000D0A20456E4C
:1001730064204368616E6E656C20696E69740D0A54
:1001830020000D0A465343414C33203A20000D0A08
:10019300465343414C32203A20000D0A4653434113
:1001A3004C31203A20000D0A465343414C30203A4B
:1001B3002000303132333435363738394142434405
:1001C300454600286E756C6C20706F696E7465729D
:1001D30029003F3F3F000000803FF9021550B7431D
:1001E300BA510000204100E7DB2E0000A0401000C0
:1001F3000000080000000A000000E066701008A379
:10020300E066700A08A3E066700408A3E06622E4CF
:10021300936670130874019366700C0874029366F6
:100223007005087403936622C3E7960809E79608E6
:1002330009E7960809E796A2D265D03322C3E4936F
:100243009608740193960874029396087403939620
:1002530022080808E630E711120A9012026C080817
:1002630008C64480C618181822181818E9799EC6BB
:1002730008CAC608CBC608CCC6C370207996CACBB9
:10028300CC7019798ECBCC70137986CC700EF98033
:100293002ACA33CACB33CBCC33CC331930E7F2CCB5
:1002A300CBCA3350147004EA30E00DE4CA3ACACB27
:1002B3003BCBCC3CCC500209C3E913C6CC18231367
:1002C300C6CB18C6CA18C6F92212030C20F0143084
:1002D300E72B74FFFCFBFA747F8022E4FCFBFA74C7
:1002E30080801AB48008BC00F2BB00EF800F50EB93
:1002F300F9E4C39AFAE49BFBE49CFCE499C6CC18AA
:10030300C6CB18C6CA18C6F922E4C9C608CAC608A5
:10031300CBC6D3330308CCC63392F0C3947F402EAD
:1003230094184019C9B90704CACBCC225025C30974
:10033300CA33CACB33CBCC33CC33D9F422F4600DDC
:10034300C9CCC313CB13CBCA13CAD9F6CC22E4FC52
:10035300FBFA2214FCFBFA22E6C3331846184618AC
:100363004622E7C33319471947194722181818E6D5
:10037300084608700AE608C3337005E633F422081A
:1003830022191919E7094709700AE709C3337005E8
:10039300E733F4220922E6084608C313460833600C
:1003A30002E633F422E7094709C31347093360021E
:1003B300E733F42212039960251203A86020120385
:1003C3005B7003020365080808E76670101819E7F5
:1003D30066700A1819E76670041819E76622F42292
:1003E300120399601C1203A8601712035B700712B3
:1003F30003657001D322C0D01203657006D0D0B359
:1004030022C32233D0D0501430E0F6C3E796080954
:10041300E7960809E7960809E796B32220E0D5E6B0
:10042300970809E6970809E6970809E697B32212A1
:100433000399601B1203A8601612035B7007120373
:1004430065600CB322C0D01203657005D0D022C3FF
:100453002233D0D0501330E0EBC3E7960809E79678
:100463000809E7960809E7962220E0E4E6970809D9
:10047300E6970809E6970809E697220012039960B0
:100483004F1203A86012E7548066F612036F7011CF
:10049300120365703B090909F4F618F618F618F605
:1004A30022120384701512035B08080860EAE6440D
:1004B3007FF618768018E4F618F62212035B6016AE
:1004C3001203657012E4F608F608F608E65480F69F
:1004D30009090918181822EAC0E0EBC0E0ECC0E0F3
:1004E300EDC0E0E687F0A4FBACF008E687F0A42CAF
:1004F300FCE435F0FA1809E687F0A42C4B6002748B
:1005030001CA35F0FCE433FB09E687F0D2F7A42CEB
:10051300CB35F0FC1908E687F0A42BCC35F0FBE4CF
:1005230033FD0819E687F0D2E7A42C4ACB35F0CD8A
:100533003400FC09E687F0D2E7A42DCC35F0FDE4C6
:1005430033FA0918E687F0D2F7A42CCD35F0CA3474
:1005530000FC08E687F0D2E7D2F7A42ACC35F07A7C
:100563007E20E70B0ACB33CBCD33CDCC33CC33CB8F
:100573003350147004ED30E00ED2F1E4CD3DCDCC18
:100583003CCC3B5005DA05C2F1EB547FC63308E699
:100593003392F0FBE73309E733C39A502D2B7019DD
:1005A3000C0D4C4D70151806E608C333700D20F181
:1005B3000AA2F013F6E418800B4024E4F630F002AC
:1005C300768018F618F618F68024D33B145010746E
:1005D300FFA2F013F6187680E418F618F6800FA23F
:1005E300F013F618E63303F618ECF618EDF6D0E040
:1005F300FDD0E0FCD0E0FBD0E0FA221203A8604675
:10060300120399603DE9687008F618F618F618F6B3
:1006130022748067F7120632090909748067F7228A
:10062300120399601D1203A87005191919801A1273
:10063300036F701F120384C37003E667331919191C
:1006430040071818182208080874FFF618F618F659
:1006530018F6221203846017120365702192F012B8
:10066300035B7019501720F014080808090909E7FB
:10067300F61819E7F61819E7F61819E7F622120320
:100683005B60E6E869701F0808E62480F608E43634
:10069300F618547FB47F0CE654806007F6E418F62E
:1006A30018F622181822E9C6CC08C6CD08C6CE080B
:1006B300C6CFC0E0E8C0E0EAC0E0EBC0E009E9F87B
:1006C30009E7FA09E7FBE6F918E6F8C3EC98ED99B0
:1006D300EE9AEBC2E7F5F0EFC2E795F0500E600C2F
:1006E300EBCFFBEACEFAE9CDF9E8CCF8EAA2E7D200
:1006F300E7FAEB33FB13F5F0EEA2E7D2E7FEEF33B5
:10070300FFC5F013A2E730E601B313C5F0C3C0E0A1
:10071300C0F07F00C39BFB605B9418600C401AD051
:10072300E023F9D0E0F80208018AF0E9486003D237
:10073300F0E4AFF0FAF9F8803BEB30E40D89F0EA2E
:100743006003D2F0E4AFF0F9CAF8EB30E30D88F0C0
:10075300EF6002D2F0AFF0E4CAC9F8EB54076014BB
:10076300FBC3EA13FAE913F9E813F8EF135002D2C3
:10077300E0FFDBEDD0E0C0E030E739C3E49FFFF5F5
:10078300F0EC98FC42F0ED99FD42F0EE9AFE42F057
:10079300D0E0F9D0E0F8E5F0607AE923F9EE20E75C
:1007A30042D8028067C3EF33FFEC33FCED33FDEE39
:1007B30033FE80EAEC28FCED39FDEE3AFED0E0236F
:1007C300F9D0E0F84002801BC3EE13FEED13FDECFD
:1007D30013FCEF135002D2E0FF08B800067F7F74CA
:1007E300FF802EEF3350178CF020F00260100CBC0A
:1007F300000C0DBD00080EBE000408E860DFE933FD
:10080300E813FFEE2313FE4F4D4C8008E95480FF9D
:10081300E4FEFDFCEE33EF33F47004FCFD7E80D088
:10082300E0FBD0E0FAD0E0F8D0E0CFC618CEC6188F
:10083300CDC618CCC6F922120399700418181822D1
:100843001203A8700D74FFF61819F61819F6181983
:10085300F622E7548066F612035B700F120365708D
:10086300F014F608F608F608F680D1120365700C4A
:10087300F608F608768008E6447F80EC120387705A
:100883000C12037260BFE65480F6E480BB1203725D
:10089300700519191980A5E869700C763F187680E0
:1008A30018F618F6E8F922E6CDC0E018ECC0E0E649
:1008B30033CD33CDD313F6E719FCE7191933CC3312
:1008C300C3947F400ECD9D502408E65480F6E4186F
:1008D300F6800FF4043D14501408E6447FF61876AE
:1008E30080E418F618F6D0E0FCD0E0FD22CCD31358
:1008F300CCFD18E4C6CBC0E018E4C6CAC0E00808C3
:10090300ED08C633E613F618E433C675F003C3CA1D
:1009130097CA09CB97CB199C40047D08802EBD0054
:10092300030209E316B6FF050606081618C3CA3301
:10093300CACB33CB33CA27CA09CB37CB193CC37DC8
:1009430008803E187D0820E75CC633C6CA33CACB8D
:1009530033CB33DDF1D5F0EB30E77BCA97CA09CB54
:10096300974ACB199C406F4B7025E620E0218066A7
:10097300187D08C3CA97CA09CB97CB199CD3C63332
:10098300C6CA33CACB33CB3350C9DDE7D5F0E1D385
:10099300E4C636C608C636C608C636C608C636C650
:1009A3001818188031C3CA97CA09CB97CB199CB3BF
:1009B3004097C633C6CA33CACB33CB33DD34D5F005
:1009C3002EC6A2E0C640C8CA27CA09CB37194A7047
:1009D300BECB3CB480B90808E63308E633601F1881
:1009E3001818D0E0FAD0E0FBD0E0FCD0E0FD2218EC
:1009F3007D08CA27CA09CB37CB193CD3808013F6AD
:100A030018E4B67F11F618B6FF0EF618C60470D2B6
:100A13000808768080CAF618F618F680C5E4CFC0B9
:100A2300E0E4CEC0E0E4CDC0E0E4CCC0E075F0206B
:100A3300C3E633F608E633F608E633F608E633F69C
:100A4300181818EC33FCED33FDEE33FEEF33FFC320
:100A5300EC9709ED9709EE9709EF97191919400FCC
:100A6300FFEC97FC09ED97FD09EE97FE191906D5E2
:100A7300F0BEECF709EDF709EEF709EFF7191919CD
:100A8300D0E0FCD0E0FDD0E0FED0E0FF2218181843
:100A9300E4C396F608E496F608E496F608E496F6B8
:100AA30022E0F608A3E0F608A3E0F608A3E0F622A6
:100AB300E6F008A3E6F008A3E6F008A3E6F022CAEE
:100AC300C0E0E6F0A308DAFAD0E0FA22CAC0E0E018
:100AD300A3C582CCC582C583CDC583F0A3C582CC13
:100AE300C582C583CDC583DAE6D0E0CA22C3E498C4
:100AF300F8E499F9120B318026C3E49AFAE49BFBDC
:100B0300E920E7E9120B31E498F8E499F922C3E408
:100B130098F8E499F9120B31E498F8E499F9C3E4ED
:100B23009AFAE49BFB22EB20E7CFE920E7E0B90048
:100B330010BB0008E88AF084F8AAF022E4FBC8FAA4
:100B430022EB70227B10C833C8C933C9335007C3A3
:100B53009AC3DBF280069A50012ADBEAC833F4C851
:100B6300C933F4C9FA2275F008E4C833C8C933C9D4
:100B730033C99AC99B5004C92AC93BD5F0ECFBC8B9
:100B830033F4C8E4C9FA22600C08C6C313C618C6F6
:100B930013C6D5E0F422700422600D18C6C333C611
:100BA30008C633C6D5E0F41822251010AF08F51097
:100BB300400215118008F51040021511D2AF22C072
:100BC300D0251010AF08F510500205118008F5105C
:100BD30050020511D2AFD0D0222510F58210AF08F4
:100BE300F510400215118008F51040021511D2AF1F
:100BF300851183222510F582E43511F58322E473F0
:100C03002510C582C0E0E51134FFC583C0E0E510BF
:100C1300C3958224F9F8E4C5A8858311858210C59C
:100C2300A8E8CEF0A3E520F0A37808E608F0A3DE59
:100C3300FAEFF0A3E58124FBF8E608F0A3E608F059
:100C4300A30808E608F0A3E608F0A315811581D0F0
:100C5300E0FED0E0F815811581E8C0E0EEC0E022A7
:100C6300851183851082E0A3FEE0A3F5207808E0D8
:100C7300A3F608DFFAE0A3FFE0A3C0E0E0A3C0E02F
:100C8300E0A3C0E0E0A3C0E0E4C5A88582108583AB
:100C930011C5A8D083D08222C0D02510C582C0E060
:100CA300E51134FFC583C0E0E510C3958224F3103A
:100CB300AF08858311858210800885831185821092
:100CC300D2AFC8F0A3E9F0A3EAF0A3EBF0A379084D
:100CD300E709F0A3D8FAECF0A3EDF0A3EEF0A3EF4D
:100CE300F0A3D0E0F0A3D0E0F0A3D0E0F0A3E520A0
:100CF300F0A3E5F0F0A322851183851082E0C0E024
:100D0300A3E0F9A3E0FAA3E0FBA37808E0F608A3C5
:100D1300DFFAE0FCA3E0FDA3E0FEA3E0FFA3E0C055
:100D2300E0A3E0C0E0A3E0F5D0A3E0F520A3E0A3B7
:100D3300F5F0E4C5A8858311858210C5A8D082D0BB
:100D430083D0E0F8D0E032740280027401C0E0F492
:100D530004120BDCD0E0120AC22274048004740271
:100D63008000CCC0E0EDC0E0E510C39CCCAD1150D9
:100D7300011D10AF068C108D1180068C108D11D2C1
:100D8300AF120ACFD0E0FDD0E0FC22D083D082C5E1
:100D9300F0E493A3C5F0C395F0F5F0E493A3C395F2
:100DA300F04005E5F0048001E475F002A42582F526
:100DB30082E5F03583F583E493A3C0E0E493C0E0D8
:100DC30022D083D082CCC0E0E493A36006120DEE60
:100DD3001470FAE493A36006120E0D1470FAD0E0B7
:100DE300FCE493A3C0E0E493C0E022C0E0E493A357
:100DF300D39C5010E493A3C39C400AD0E0D0E0D02E
:100E0300E0020DE1A3A3A3D0E022C0E0E493A36C2E
:100E13007009D0E0D0E0D0E0020DE1A3A3D0E0223E
:100E2300D083D082ECC0E0EDC0E0EEC0E0EFC0E0E4
:100E3300E493A3FCE493A3FDE493A3FEE493A3FF51
:100E4300EF4E4D4C6015120E9FEC24FFFCED34FF6A
:100E5300FDEE34FFFEEF34FFFF80E5E493A3FCE4F3
:100E630093A3FDE493A3FEE493A3FFEF4E4D4C60E5
:100E730015120EDCEC24FFFCED34FFFDEE34FFFE17
:100E8300EF34FFFF80E5D0E0FFD0E0FED0E0FDD0FF
:100E9300E0FCE493A3C0E0E493C0E022C0E0C0F030
:100EA30088F0120240A8F04007120212A8F0701A4C
:100EB300A3A3A3A3120240A8F0A3A3A3A34013D008
:100EC300F0D0E0D0E0D0E0020E89A3A3A3A3A3A3B4
:100ED300A3A3A3A3D0F0D0E022C0E0C0F088F01217
:100EE3000212A8F0A3A3A3A3700BD0F0D0E0D0E02C
:100EF300D0E0020E89A3A3D0F0D0E022C082C08349
:100F0300A2A0E492E0F45401F9600FE4800104C369
:100F1300940A5006A2A050F67900E9601090F1FF00
:100F2300E070067401F0F9800979008005E490F11E
:100F3300FFF0D083D08222C082C08390F200E070A1
:100F43001B7401F053FFFD53FFFB53F5FE53F5FDF7
:100F530053F7FD53F7FB53F77F53F77FD083D082CB
:100F63002274F8120C03E9FF7E00800C74805FF991
:100F7300120F9BEFC333FF0EEEC3940840EE7900CC
:100F8300120FC553FFFB7901120FC57901121040EF
:100F9300A2A2B37F01020C63EEC0E0E9FE79001266
:100FA3000FC57901121040EE600553FFFB80054326
:100FB300FF04C2A27901120FC57901121040D0E0DB
:100FC300FE22EEC0E0E9600E53FFFDA2A1400C79C2
:100FD3000112104080F543FF02C2A17901121040B3
:100FE300D0E0FE22EEC0E07E037901120FC5A2A17C
:100FF300400979011210401EEE70F37900120FC5FB
:1010030053FFFB7901120FC5790112104043FF040E
:10101300C2A279011210407900120FC5D0E0FE225E
:101023007900120FC543FF04C2A27901121040795F
:1010330001120FC553FFFB790112104022E9197009
:10104300FC2274F5120C037508007E07801612103B
:10105300795010750A01750B00EE780A120B99E5A9
:101063000A42081EEEC39400A2D265D03350DFA912
:10107300087F04020C637900120FC5790112104036
:101083007901120FC57901121040A2A222EEC0E02D
:10109300E9FE120FE7EEC333F9120F645004D2F0E6
:1010A3008002C2F0A2F0E492E060E77900D0E0FEB3
:1010B3002274F7120C03EAFEEBFF8C08E9C333F941
:1010C300121168EFF9120F64EEF9120F64A90812F6
:1010D3000F6412102379017F02020C6374F5120C62
:1010E30003EAFEEBFF8C088D09740B120BF7E0F596
:1010F3000BE9C333F9121168EFF9120F64EEF91219
:101103000F648012850882850983E0F9120F64A3B6
:10111300858208858309AE0B74FF2EF50BEE70E410
:1011230012102379017F04020C6374F7120C03EA93
:10113300FEEBFFE9C333F508F9121168EFF9120F5B
:1011430064EEF9120F64120FE774014508F91211E6
:1011530068121045E9FE7901120F9B121023EEF974
:101163007F02020C6374F8120C03E9FE7F03120F73
:10117300E7EEF9120F6440041FEF70F27F01020CD7
:1011830063E9600B43C640E5BEA2E550FA800F5306
:10119300BEFBE5BEA2E650FA0053C680E5C643BED9
:1011A3000422C082C08390F208E054F0F0741390DC
:1011B300F207F0741069702E74F290F201F0740962
:1011C30090F202F074DF90F203F074D990F204F01D
:1011D300742090F205F0741290F206F090F208E099
:1011E300540F44408031742069702D74DF90F201F4
:1011F300F074D990F202F074F290F203F074099053
:10120300F204F0748090F205F0741490F206F090FA
:10121300F208E0540F4410F074F2F5D575D401D000
:1012230083D08222C082C083C29090F271E07002A8
:10123300C291C292C293C294C295C296C297D083FE
:10124300D08222C29043FE0153F4FEC29143FE02B8
:1012530053F3FDC29243FE0453F4FBC29343FE08CF
:1012630053F4F7C29443FE1053F4EFC29543FE20A8
:1012730053F3DFC29643FE4053F3BFC29743FE804E
:1012830053F37F22C082C0837A00C29353FEF75385
:10129300F4F7D292A29350030AC292A29340030A94
:1012A300D292A29350030AC292EAC39403400474F5
:1012B300018001E490F271F0C29343FE0853F4F706
:1012C300C293D083D08222C0E074F2120C9BE5E477
:1012D300A2E75008740F55E44470F5E4E5E4A2E492
:1012E300400302139B740F55E444E0F5E412122704
:1012F30090F3DDE004F0E0C39409400E90F267E45C
:10130300F0A3F090F3DDF075E200E0640870129052
:10131300F267E0F8A3E0F9747AC398F8743F998010
:1013230015E0C333F8E433F9E824BDF582E934F377
:10133300F583E0F8A3E0F990F267E028F0A3E03941
:10134300F090F3DDE0120D8E000795135F13691320
:1013530073137D1387138B138F13931390F271E021
:101363007030D290802C90F271E07026D29180225E
:1013730090F271E0701CD292801890F271E07012BA
:10138300D293800ED294800AD2958006D2968002A0
:10139300D297E8F5DAE9F5DB7F01020CFAC0E0C089
:1013A300D0EAC0E0C082C08390F273E02401F0A3CE
:1013B300E03400F090F272E004F0E0C3945A400489
:1013C300E4F0D29190F3E0E0C0E090F272E0FAD062
:1013D300E0C39A5002C291C2DBC2C4D083D082D090
:1013E300E0FAD0D0D0E03274F8120C03E9FEEAFF41
:1013F300C2D88ECD43CB047A008003C2D80AEFC390
:101403009A4013A2D840F490F21EE0640170F4E411
:10141300F01221DD8006740490F26AF07F01020C61
:1014230063D287C28622759CB4E59C70FC2274F457
:10143300120C037A007B01795012112DE964FF60CD
:101443006C750C008060E50CC333FEE433FFE42EBF
:10145300FA74013FFB795012112DE9FAEE24CDF510
:101463000AEF34F3F50BEAF50974012EFA74013F20
:10147300FB795012112DE9850A82850B83F0A3E5D0
:1014830009F0850A82850B83E0FAA3E0FBEE24BD15
:10149300F582EF34F3F583EAF0A3EBF0122313792B
:1014A300201222BE050CE50CC3940840997F050267
:1014B3000C63C082C08390F271E06401703553E421
:1014C3007F53E4EFD2DE53E5BF53E7BF53E7BF7566
:1014D300F14043F401743F55FF4480F5FF74C75551
:1014E300E7442CF5E775DE6575DF0175EDB475EB43
:1014F3007ED2BC75DA7A75DB3F74F055E4440AF5A5
:10150300E475E200D2B9D083D0822279001211842B
:10151300C28043FD0153F3FEC28443FD1053F3EF36
:1015230053F3FDC28143FD0253F3BFD28643FD4013
:1015330053F37FD28743FD8053F5FED2A043FF01CF
:1015430053F5F7C2A343FF0853F5EFC2A443FF10BB
:1015530053F5FE53FFFE85F7F71212461212871258
:10156300228A759C00759D06759E0175CC0075CE0B
:101573000075CBF6D2AF7A797BF31222CD120F3AF4
:1015830012142990F3E1120D5D90F3E57808120A25
:10159300A4AA08AB09AC0AAD0B121BE77404120B27
:1015A300C27A007B00795012112DE964FF701A751D
:1015B300081E7808120D4E7C787DF27A007B007944
:1015C300501210DF7401120BC2742090F21FF0123C
:1015D300142490DF14E04403F0740190F270F0E4FB
:1015E30090F266F090F265F079201211A5439A010A
:1015F300759110D2AFE490DF06F075E10490DF3B04
:10160300E0640170F875D60175E1020216C879012C
:10161300121BA990F26CE004F0E0C3940C4015E4B3
:10162300F07A8F7BF31222CD90F26DE070061214E4
:10163300317401F090F26AE0640160317A7879F2F2
:101643001213EA638001E580E0120DC40003021166
:1016530016045C1608111616167907121BA97920B1
:101663001222BE90F277E0F91222F680A6D280E42D
:1016730090F26CF07901121BA9E490F26BF090F3F5
:10168300DEF080307A0A79E11213EA90F26AE0120E
:101693000DC4000401A51602DC1604DC1608DC16D2
:1016A300AD16E490F26BF01216E4E490F26DF0796B
:1016B30001121BA990F26BE0C3940B4008E4F07491
:1016C3000190F3DEF090F3DEE060B97A8A7BF312E7
:1016D30022CD90F26AE002163790F26BE004F080BC
:1016E300C974F1120C0374FB120BAC90F269E07035
:1016F300067401F01214B590F277E0700390F34092
:10170300E014FA90F20EE06A6003021A3A90F213C0
:10171300E0FA740F5AF8E4C8F990F20FE090F3CDB1
:10172300F0A3E9F074F05AF50888097404780812F4
:101733000B9990F210E090F3CFF0A3E509F090F24B
:1017430014E0FA740F5AF8E4C8F990F211E090F338
:10175300D1F0A3E9F074F05AF50888097404780805
:10176300120B9990F212E090F3D3F0A3E509F090F5
:10177300F219E0FA740F5AF8E4C8F990F215E09000
:10178300F3D5F0A3E9F074F05AF5088809740478E6
:1017930008120B9990F216E090F3D7F0A3E509F045
:1017A30090F21AE0FA740F5AF8E4C8F990F217E0CD
:1017B30090F3D9F0A3E9F074F05AF508880974049A
:1017C3007808120B9990F218E090F3DBF0A3E50987
:1017D300F090F263E4F0A3806F90F263E0FAA3E089
:1017E300FBEAC333FAEB33FBEA24CDF582EB34F3A4
:1017F300F583E0F50CA3E0F50D750E00750F007889
:101803000C12026F90F3E97808120AA4780C790895
:1018130012047E780C1202CCA80CA90DC3E894B76D
:10182300E994035009C3E89434E99408500FEA2477
:10183300BDF582EB34F3F583E8F0A3E9F090F263AE
:10184300E02401F0A3E03400F090F263C3E09408D5
:10185300A3E094004083120EFFE970030219329053
:10186300F263E4F0A30218EE90F263E0F8A3E0F968
:10187300E8C333F8E933F9E824BDF582E934F3F535
:1018830083A3E0FC90F263E0F8A3E0F9E8C333F844
:10189300E933F9E428FA740139FB79501210B47969
:1018A3005012109090F263E0F8A3E0F9E8C333F824
:1018B300E933F9E824BDF582E934F3F583E0FC90DC
:1018C300F263E0F8A3E0F9E8C333F8E933F974010C
:1018D30028FA740139FB79501210B4795012109020
:1018E30090F263E02401F0A3E03400F090F263C3CC
:1018F300E09408A3E09400500302186B7A9C7BF3F6
:101903001222CD7E007F018019EEFAEFFB7950128F
:10191300112D1222F679201222BEEE24010EEF348D
:1019230000FFC3EE9410EF940140DEA2A050FC90A0
:10193300F260E0C333F8E433F9E82420F582E934B4
:10194300F2F583E0F8A3E0F990F261C3E098F0A325
:10195300E099F090F21BE0F912220FEAFCEBFD9004
:10196300F260E0C333F8E433F9E82420F582E93484
:10197300F2F583ECF0A3EDF090F261E02AF0A3E03E
:101983003BF090F26EEAF0A3EBF090F270E06401AA
:10199300701090F3DFE0F890F26EE028F0A3E034EB
:1019A30000F090F26EC3E094CAA3E094FFA2D26564
:1019B300D033500C90DF14E054FCF0E490F270F05C
:1019C30090F26EE0241CF8A3E03400F9C3E894130A
:1019D300E99400500D90DF14E04403F0740190F299
:1019E30070F090F26E120D617CAC7DF37402120BF9
:1019F300F7AA82AB831223CD7402120BC27AB07B97
:101A0300F31222CD851082AA82AB831222CD7920D4
:101A13001222BE90F270E0F91222F679201222BE51
:101A230090F20EE0F91222F690F260E004F0E06426
:101A330020701DE4F080197AB37BF31222CDE0F914
:101A43001222F679201222BE90F277E0F91222F6E2
:101A53007405120BC27F08020C63C0E0C0D0C082C1
:101A6300C08353E9EF539BFCE59B90F21FE0642096
:101A7300700D740190F21EF063A008E5A080067457
:101A83000190F21DF0D083D082D0D0D0E032C0825A
:101A9300C08343B404E5BC90F341F0A3E4F0E5BD97
:101AA300F990F341E0F0A3E049F090F341E0FAA3A9
:101AB300E0FBD083D0822253B4F3E5B4EBF5BCEA68
:101AC300F5BC2274F3120C038A0C8B0D890975087B
:101AD30000803C121A91EAC0E0E509F5F0D0E084F9
:101AE300E5F0F50AE50C250AF8E50D3400F98882DE
:101AF3008983E0FCE50C2EFAE50D3400FB8A828B2A
:101B030083E088828983F0EC8A828B83F0050885E1
:101B13000882AE8285090A74FF250AF874FF34002F
:101B2300F9C3EE98E499A2D265D03340A67F0602AA
:101B33000C6374F7120C037A008010EAC0E0247877
:101B4300F582E434F2F583D0E0F00AEAC0E090F3E2
:101B530040E0FBD0E0C39B40E27A267B3D121ABAF9
:101B6300E0F97A787BF2121AC67AED7BF31222CD72
:101B73007E00801879201222BE8E08E5082478F5AD
:101B830082E434F2F583E0F91222F60EEEC0E0901F
:101B9300F340E0FAD0E0C39A40DA7AFE7BF31222F4
:101BA300CD7F02020C63C082C08390F277E029F0FC
:101BB300E0C0E090F340E0FAD0E0C39A4009E0FAD5
:101BC30090F277E0C39AF090F277E02478F582E41C
:101BD30034F2F583E090DF06F075D60175E102D0AB
:101BE30083D0822274F1120C038A0C8B0D8C0E8D20
:101BF3000F740F120BF77808120AA4740A90F340BB
:101C0300F07A267B3D121B3590DF36E064016003DA
:101C1300021EE87808120E230000000003000000F3
:101C23005C9D0600791CA03E0D00631C58C70D0087
:101C33004D1C371C74C090DF2EF0742390DF09F025
:101C4300743190DF0AF0743B804074C090DF2EF053
:101C5300742290DF09F074BB90DF0AF07413802ABA
:101C630074C290DF2EF0742190DF09F0746290DF6C
:101C73000AF074768014743090DF2EF0741090DFC5
:101C830009F074AC90DF0AF0744E90DF0BF0780C1F
:101C9300120E2300000000020000000096000076F0
:101CA3001D90D00300AC1C2E1E90F3E178081201A6
:101CB300FD7004740C8002741290DF07F07412F04C
:101CC300E490DF08F0742D90DF0CF0743B90DF0D8F
:101CD300F0741390DF0EF0742290DF0FF074F8901D
:101CE300DF10F0746290DF11F074B690DF1AF074B5
:101CF3001090DF1BF0741890DF14F0741D90DF1543
:101D0300F0741C90DF16F074C790DF17F0E490DFD7
:101D130018F074B090DF19F074EA90DF1CF090F3C0
:101D2300E178081201FD7004740A8002742A90DFBE
:101D33001DF0741F90DF1FF0748190DF23F0743562
:101D430090DF24F0740990DF25F07808120E230049
:101D530000000003000000A03E0D006E1D58C70DDB
:101D6300006E1D38F60D006E1D261E90F275744D23
:101D730002210F740690DF07F0E490DF08F074CAC5
:101D830090DF0CF0748390DF0DF0741390DF0EF08E
:101D9300742290DF0FF074F890DF10F0743490DF4A
:101DA30011F0745690DF1AF0741090DF1BF090DF7F
:101DB30014F0741690DF15F0746C90DF16F0744312
:101DC30090DF17F0744090DF18F0749190DF19F0F2
:101DD30074E990DF1CF090F3E178081201FD7004C0
:101DE300740A8002742A90DF1DF0741F90DF1FF0C5
:101DF300748190DF23F0743590DF24F0740990DF51
:101E030025F07808120E230000000003000000A054
:101E13003E0D00261E58C70D00261E38F60D00265F
:101E23001E0A2190F275744902210F740690DF0790
:101E3300F0E490DF08F074F590DF0CF0748390DF2A
:101E43000DF0741390DF0EF0742290DF0FF074F82E
:101E530090DF10F0741590DF11F0745690DF1AF0D4
:101E6300741090DF1BF0741890DF14F0741690DF79
:101E730015F0746C90DF16F0740390DF17F0744064
:101E830090DF18F0749190DF19F074E990DF1CF083
:101E930090F3E178081201FD7004740A8002742A39
:101EA30090DF1DF0741F90DF1FF0748190DF23F02B
:101EB300743590DF24F0740990DF25F07808120E52
:101EC300230000000003000000A03E0D00261E5862
:101ED300C70D00261E38F60D00261EE01E90F27573
:101EE300744B02210FE06481600302211374FE909E
:101EF300DF2EF07808120E2300000000030000001C
:101F030020ED2400471F403B2500371F6089250033
:101F1300271F171F745F90DF09F0746290DF0AF0C8
:101F23007476802E745E90DF09F0749D90DF0AF062
:101F33007489801E745D90DF09F074D890DF0AF015
:101F4300749D800E745D90DF09F0741390DF0AF0C6
:101F530074B190DF0BF0780C120E23000000000226
:101F630000000090D00300FE1F20A10700741F870C
:101F730020741090DF07F0E490DF08F0740E90DF18
:101F83000CF0743B90DF0DF0747390DF0EF074422D
:101F930090DF0FF074F890DF10F0E490DF11F0742D
:101FA300B690DF1AF0741090DF1BF0741490DF14F6
:101FB300F0741D90DF15F0741C90DF16F074C79059
:101FC300DF17F0744090DF18F074B290DF19F074EB
:101FD300EA90DF1CF0740A90DF1DF0741190DF1F8C
:101FE300F0748890DF23F0743190DF24F0740B9049
:101FF300DF25F090F275744802210F740A90DF0711
:10200300F0E490DF08F0742D90DF0CF0743B90DF68
:102013000DF0747390DF0EF0742290DF0FF074F8FC
:1020230090DF10F0E490DF11F074B690DF1AF074D3
:102033001090DF1BF0741490DF14F0741D90DF1503
:10204300F0741C90DF16F074C790DF17F0E490DF94
:1020530018F074B290DF19F074EA90DF1CF0740A80
:1020630090DF1DF0741190DF1FF0748890DF23F070
:10207300743190DF24F0740B90DF25F090F27574C7
:102083004702210F740890DF07F0E490DF08F07433
:102093007890DF0CF0749390DF0DF0740390DF0EF3
:1020A300F0742290DF0FF074F890DF10F074449016
:1020B300DF11F0745690DF1AF0741090DF1BF07488
:1020C3001490DF14F0741690DF15F0746C90DF1623
:1020D300F0744390DF17F0744090DF18F074919020
:1020E300DF19F074A990DF1CF0740A90DF1DF074FF
:1020F3001190DF1FF0748890DF23F0743190DF2498
:10210300F0740B90DF25F090F275744AF0A3E4F0BD
:10211300E490DF06F0743090DF13F0740490DF0373
:10212300F0744590DF04F0E490DF05F0741190DF64
:1021330002F0780079008038E82478F582E934F2F7
:10214300F583E090DF06F075E10475E10190DF3B74
:10215300E0640170F890DF1EE0C0E0E824DCF58263
:10216300E934F2F583D0E0F0E8240108E93400F91A
:1021730090F340E0FAC3E89AE99400A2D265D03321
:1021830040B6741890DF14F0742090DF06F075E108
:102193000190DF3BE0640170F87A157BF41222CDE5
:1021A30090DF1CE0F91222F67A217BF41222CD9003
:1021B300DF1DE0F91222F67A2D7BF41222CD90DF97
:1021C3001EE0F91222F67A397BF41222CD90DF1F3A
:1021D300E0F91222F67F08020C63C082C08390F2FA
:1021E30009E06411701912224AE96019122272E996
:1021F3006009740190F26AF0F9800C740280027431
:102203000890F26AF07900D083D0822274F7120C1E
:1022130003E9FC8C82A8827900C39480E49400C310
:1022230065D0334001197A027B00120B2988088993
:102233000990F275E0F8A3E0F9E508C398FAE50917
:1022430099FB7F02020C63C082C08390F20AE064B0
:102253003D701590F20BE06426700DE490F20AF0E5
:1022630090F20BF0790180027900D083D08222C0F2
:1022730082C08390F21CE0A2E7E4F050047901806D
:1022830001F9D083D0822274FE55F14402F5F14363
:10229300F30CE5F375C22274E055C5440CF5C54350
:1022A300868053C4FE43C40253C4FB53C4F753C4D0
:1022B300EF53C4DF53C4BF53C5DF225386FD89C127
:1022C300E586A2E150FA5386FD22C082C0838A824A
:1022D3008B838006E0F91222BEA3E070F7D083D08F
:1022E3008222E9FAC3940A500574302AF92274371A
:1022F3002AF922EEC0E0E9FEC4540FF91222E512D6
:1023030022BE740F5EF91222E51222BED0E0FE2235
:1023130074F7120C03EAFEEBFF8E088F09740C7836
:1023230008120B8AA9081222E51222BE740F5FF964
:102333001222E51222BEEEC4540FF91222E5122234
:10234300BEEE540FF91222E51222BE7F02020C6385
:10235300C0E0C0D0E8C0E0E9C0E0C082C083C28B67
:1023630090F374E0F8E5C1C0E0E82443F582E43477
:10237300F3F583D0E0F074012808E43400F97431F4
:10238300687001E97006E490F374800590F374E0DB
:1023930004F0D083D082D0E0F9D0E0F8D0D0D0E000
:1023A3003274F8120C038A828B8312243AE9F08A7E
:1023B300828B83E02401FCA3E03400FD8A828B83BB
:1023C300ECF0A3EDF07F01020C6374F7120C0374BD
:1023D300FC120BAC7402120BF7EAF0A3EBF0ECFA6D
:1023E300EDFB740D120BF7A882A98385108285116A
:1023F30083E8F0A3E9F0851082851183858208853F
:1024030083097808120D4A7404120BF78582088534
:1024130083097808120D4A7CA47D2312291B7404B6
:10242300120BC27402120BF712243AE4F074041272
:102433000BC27F02020C63E0F8A3E0F583888222DB
:1024430074F1120C0374FD120BAC7402120BF7E956
:10245300F08A088B098C0A8D0B7414120BF7E0FCBD
:10246300A3E0FD851082851183E4F0A3F090F46965
:10247300780C120AA47808790C1203E3500302259E
:102483002190F375780C120AA47808790C1203B71B
:1024930060030225757416120BF7E070030225B76B
:1024A300851082851183C082C0837412120BF712C8
:1024B3003327D083D0821228AB502C85108285110C
:1024C30083C3E094FCA3E094FFA2D265D03340170A
:1024D3007402120BF7E41233E7F97412120BF7C309
:1024E300E098F0A3E099F07412120BF71228E97444
:1024F30017120BF7E070030225B47416120BF7E4FE
:102503000225B690F46D780C120AA47808790C129F
:10251300083A851082851183E0240A12342490F44A
:1025230071780C120AA47808790C1203E340D49052
:10253300F475780C120AA47808790C1203E34003AB
:1025430002249890F475780C120AA47808790C1276
:10255300083A12341B80D890F46D780C120AA478D0
:1025630008790C12047E851082851183E024F6120B
:1025730028EC90F479780C120AA47808790C1204E8
:102583003240D490F469780C120AA47808790C12BA
:102593000432400302249890F475780C120AA4784C
:1025A30008790C12047E8510828511831228E98034
:1025B300D27401F07402120BF7E060077A007B001B
:1025C3000226B51228BC506D1228DA120BF7E0FE72
:1025D300A3E0FFEE7001EF70087417120BF7E060D1
:1025E3000B742E8C828D83F0A30CAD837A007B0059
:1025F30080091228DA120BF71228E9EA24FF1AEBF2
:1026030034FFFB85108285118312289F500C7412AE
:10261300120BF7E07002A3E070D885108285118356
:1026230074FFC39EF874FF9FF91228AB500302276F
:10263300847A018089851082851183123327C3E44C
:1026430098FAE499FB806B85080C85090D850A0EC1
:10265300850B0F780C1202CCAE0CE50D3395E0F52B
:102663000EF50F780C1202547808790C1205FE90BF
:10267300F475780C120AA47808790C12047EEE1211
:1026830028CDEAF8EBF97401280AE439FBE8700174
:10269300E9701F7412120BF7E07002A3E070087464
:1026A30017120BF7E0600B742E8C828D83F0A30C52
:1026B300AD837412120BF712289F508B90F47D7820
:1026C3000C120AA47808790C1203E340030227844E
:1026D3007E01EC24FFF8ED34FFF97414120BF7E0DC
:1026E300F508A3E0F50988828983E0642E6010E091
:1026F3002EF0643A70077430F07E0180027E00E8A9
:10270300FAE9FBEA24FF18EB34FFF9C3E5089AE57D
:10271300099B40D2EE7001E460677402120BF7E08C
:102723006036ECF8ED800A12288AE824FF18E934B1
:10273300FFF9C3E50898E509995018122877E06472
:102743002E70E4E824FEF582E934FFF58312288431
:10275300F980D712341B801E8C828D83A3AC82AD8B
:1027630083ECF8ED8006122877122884F9C3E50874
:1027730098E5099940F07414120BF71228B77431D5
:10278300F07416120BF7E07005801A1CAD83EC246D
:10279300FFF582ED34FFF583E0643060EEE0642EF4
:1027A30070031CAD837402120BF7E0700302285F01
:1027B3001228CFA3A9831228BC5018742D8C828DA4
:1027C30083F00CE9FD8510828511831233511228A1
:1027D300F7800A742B8C828D83F00CE9FD7E007FD9
:1027E30000EC240AFCED3400FDEE24010EEF34006E
:1027F300FF122891120B29EA1228CD122891120BED
:10280300291229047002A3E070DFC3EE9402122898
:102813006E40D6EEFAEFFBC3E49EF8E49FF9EC2892
:10282300F582ED39F583E0C0E0C3E49AF8E49BF95F
:10283300EC28F8ED39F9EE28F8EF39F974F528F5B5
:102843008274FF39F583D0E0F01232D4EE94011292
:10285300286E50C3EC24F6FCED34FFFDECFAEDFBDF
:102863007403120BC27F08020C63C3EF9400A2D25D
:1028730065D03322E824FFFAE934FFFB8A828B8395
:102883002212288A18EB22E088828983F02285109D
:10289300828511831233BF7A0A7B0022C3E09AA395
:1028A300E09BA2D265D03322C3E098A3E099A2D2E1
:1028B30065D03322E012334922851082851183C308
:1028C300A3E09400A2D265D0332224308C828D837E
:1028D300F0A3AC82AD832274308C828D83F0A3ACE1
:1028E30082AD83741222E024FFF0A3E034FFF022D0
:1028F300A3E03400F9851082851183E8F0A3E9F0A1
:102903002285108285118312290E22E8F0A3E9F0B3
:10291300851082851183E02274F1120C0374B012C6
:102923000BAC8510828511831233CD7418120BF70B
:10293300ECF0A3EDF0740F120BF7E4F0A380227414
:102943005F120BF71233177404120BF7E0F97418C4
:10295300120BF71228B7120C01740F120BF7123275
:10296300DEF0123384FA123406120BF7EAF0742500
:102973006A6010E070C9740F120BF71233177450AA
:1029830002286512338464257019851082851183AA
:10299300E02401081228F3745F120BF7123317793E
:1029A3002580AB740E120BF7E4F0740D120BF7E4F1
:1029B300F0740C120BF7E4F07405120BF7E4F074E7
:1029C3001E120BF7A882A9837402120BF7800E74F0
:1029D30005120BF7E0602685108285118312290A00
:1029E30012330E123371FA120DC4000520D22923BB
:1029F300122A2B002A2D092A30162A1A2A740512A4
:102A03000BF7EAF080D1740C120BF7E00480F47436
:102A13000D80F5740E80F1123371642A705B74615A
:102A2300120BF712337CFB8A828B83E0FCA3E0FD5D
:102A3300740A120BF7ECF0A3EDF0EA24020A0AEB96
:102A43003400FB7461120BF71233C5740A120BF7CF
:102A53001228C2501F740A120BF7123317C3E49AD9
:102A6300FAE49BFB740A120BF71233CD740C120BAE
:102A7300F7E004F01228F8804C740A120BF7E4F024
:102A8300A3802F740A120BF7123327E875F00AA4F8
:102A9300F8AAF075F00AE9A42AF9E82508F8E93458
:102AA30000F974D028F874FF39F9740A120BF7127D
:102AB300342B1233E7F5838882E0F50874D02508B8
:102AC300C3940A40BE740C120BF7E06007740E1235
:102AD3000BF7E4F0123384642E6003022B67851036
:102AE30082851183E0240108A3E03400F91229044C
:102AF3001228B8E0642A702C7461120BF712338A1F
:102B0300F8A3E0F988828983E0FEA3E0FFE82402CA
:102B13000808E93400F97461120BF71233641234B4
:102B23002BF080447E007F00123384F50874D02597
:102B330008C3940A5032EE75F00AA4FEAAF075F0A9
:102B43000AEFA42AFFEE2508F8EF3400F974D02821
:102B5300FE74FF39FF851082851183E02401F8128A
:102B630028F380C47EFF7FFF7A008510828511835E
:102B7300123309851082851183E0FBA3E0F5838B73
:102B830082E0120DC400034C952B68962B6C952B99
:102B9300992B0A1228F8123384FB123406120BF70E
:102BA300EBF0120DC40010008031453C3047173064
:102BB300583B2D633C2C64E82D653C30663530670B
:102BC300173069E82D6EDC2B6F292D703B2D737543
:102BD3002C753B2D783B2D8C317461120BF712331E
:102BE300B2120BF71228FEEA6035740F120BF7E0EE
:102BF300FCA3E0FD3395E0FE7406120BF71233934A
:102C0300ECF0A3EDF0A3EEF0A3F07461120BF71256
:102C1300339A120BF7123364E8F0A3E902296474C0
:102C23000F120BF71233277406120BF712337CF5CE
:102C3300838A82E8F0A3E980D07461120BF7123320
:102C430093E0C0E0741E120BF7D0E0F07461120B36
:102C5300F712339A120BF71233641228FE741F1201
:102C63000BF7A882A9837412120BF7E8F0A3E90209
:102C730031A37461120BF71233B2120BF71228FE51
:102C83007406120BF71233B2120BF7E02402FAA305
:102C9300E03400FB7461120BF71233C57402120B9C
:102CA300F71228FEE87001E9700C7402120BF77436
:102CB30056F0A374F4F012286D50047E107F27742D
:102CC30008120BF7E4F0A380087408120BF7123212
:102CD300DEF07402120BF712332788828983A3AACA
:102CE30082AB837402120BF71233CD88828983E09F
:102CF300600A7408120BF712332B40CD7402120BC7
:102D0300F71232F77412120BF71228FE7408120B23
:102D1300F7123351F97412120BF7E028F8A3E039D4
:102D2300F97402022C6B740D120BF7E0600AEE705B
:102D330001EF70047E017F007461120BF71233B24E
:102D4300120BF7123413120BF7E06470703C740625
:102D5300120BF71233A8120BF71233EE120BF7E034
:102D6300240212335B120BF71233641228FE90F421
:102D7300817808120AA4741A120BF77808120AB39E
:102D83007405120BF7E4F0022E85EA602174061233
:102D93000BF71228B77808120AA47414120BF778E9
:102DA30008120AB37406120BF7E0240480147406A5
:102DB300120BF71233A8120BF71233EE120BF7E0D4
:102DC300240212335B120BF7123364123413120B07
:102DD300F7E0646F700590F4858096E06475708EFB
:102DE30090F489808C7461120BF71233B2120BF7D3
:102DF3001228FEEA60187406120BF71228B7780C33
:102E0300120AA47406120BF7E02404F8801F740658
:102E1300120BF712338AF50CA3E0F50D3395E0F5A9
:102E23000EF50F7406120BF7E02402080812335C48
:102E3300120BF71233FB120BF7780C120AB390F351
:102E4300757808120AA47808790C12022B502174A1
:102E530005120BF7742DF07414120BF77808120A8D
:102E6300A47808120A937414120BF77808120AB3A1
:102E730090F4897808120AA4741A120BF7780812CE
:102E83000AB3744F120BF7A882A9837402120BF7CB
:102E93001228FE7412120BF71233FE120BF7C082C4
:102EA300C08390F3757808120AA4D083D08278087F
:102EB3001201FD60097411120BF77401800674117D
:102EC300120BF7E4F0EE7001EF7006E07003022FCF
:102ED3008C7402120BF712333B120BF71233FE12F0
:102EE3000BF7780C120AA4741A120BF77808120A5B
:102EF300A4780C7908120A20E5082445F582E5092F
:102F030034F4F583E0C0E07402120BF71228B7D053
:102F1300E0F07414120BF7780C120AA4741A120B53
:102F2300F77808120AA4780C7908120A207414128C
:102F33000BF7780C120AB37414120BF7C082C08318
:102F430090F3757808120AA4D083D082780812010E
:102F5300FD6003022ED412286D502E740E120BF74F
:102F6300E060267405120BF7E06004D2F08002C221
:102F7300F0740A120BF71232E7800E7402120BF789
:102F83001233DF120BF71233417402120BF71232B2
:102F9300F7744F120BF7C082C0837402120BF7123F
:102FA3003317D083D082E582C39AFAE5839BFBC3B0
:102FB300EA9EEB12333440C3740D120BF7E0700337
:102FC3000231A47411120BF7E070030231A47404EC
:102FD300120BF7E064786005E06458701E12288ACB
:102FE300E824FF18E934FFF97402120BF71233DFF8
:102FF300120BF71228B774300231A3E0646F600339
:103003000231A47402120BF7123377643070030297
:1030130031A480D47408120BF77401F0A3E4F074A4
:1030230004120BF7E024FEF0EE7001EF70147E0142
:1030330080177404120BF7E4F07408120BF7E4F032
:10304300A3F012286D50047E067F007461120BF703
:103053001233B2120BF71228FE7406120BF7122862
:10306300B7780C120AA47406120BF7E02404123387
:103073005B120BF71233FB120BF7780C120AB390A7
:10308300F3757808120AA4780C79081204325022D6
:103093007405120BF7742DF07414120BF7780812E1
:1030A3000AA4E50BB2E7F50B7414120BF7780812B8
:1030B3000AB3740A120BF7123327741E120BF7E5C7
:1030C3008228F8E58339F97402120BF71228FE748B
:1030D3000D120BF7E0F5087808120D4E7409120B68
:1030E300F7E0F5087808120D4E7404120BF7120D71
:1030F300618E088F097808120D4A740A120BF7E0E3
:10310300F9741A120BF77808120AA4AA08AB09ACCF
:103113000AAD0B1224437406120BC27412120BF77E
:103123001233CD740E120BF7E060767405120BF7B1
:10313300E06004D2F08002C2F0740A120BF712327C
:10314300E77412120BF7C082C0837402120BF712DA
:103153003327D083D082E0C398F8A3E099F9C3E87A
:103163009EE9123334503A7402120BF712333B12B6
:103173000BF71233DF120BF712334180C485108231
:103183008511831233001228F77402120BF774654A
:10319300F0A374F4F07412120BF77468F0A374F4D0
:1031A300F07412120BF7C082C0837402120BF71271
:1031B3003327D083D082E0C398FEA3E099FF740A3B
:1031C300120BF712332B500A7408120BF7E4F0A317
:1031D30080327405120BF7E06004D2F08002C2F073
:1031E300740A120BF7E0C39EF8A3E09FF9A2F0E480
:1031F30092E0FAE8C39AF8E99400F97408120BF71D
:10320300E8F0A3E9F0740C120BF7E0702B8019744B
:103213005F120BF712331D120BF71228B7120C01B2
:10322300740F120BF71234217408120BF71233D3F5
:10323300120BF71228C250D77405120BF7E0605037
:10324300745F120BF71233177405120BF7E0F9745E
:1032530018120BF71228B7120C01802C745F120B93
:10326300F71233177402120BF712338AF974181218
:103273000BF71228B7120C017402120BF712330961
:103283007402120BF71228FE740F120BF71234217B
:103293001232D412286F50C4740C120BF7E070036F
:1032A3000229657408120BF71233D3120BF7122895
:1032B300C25003022965745F120BF712331D120B00
:1032C300F71228B7120C01740F120BF71234218076
:1032D300D2EE24FF1EEF34FFFFC322E02401F0A34C
:1032E300E0340022A2F0E492E0F8E0C398FEA3E009
:1032F3009400FF221232FB22123300F922E024FF52
:10330300F8A3E034FF22E012330E222401F8A3E0F5
:103313003400F922E0FAA3E0FB22E0FAA3E0FB7910
:10332300207418221233BF22C3E09EA3E012333469
:10333300229FA2D265D033221232FB7402221233AF
:10334300487430F022E0F8A3E0F583888222123338
:10335300BFC3E498F8E49922F8A3E03400F9746158
:103363002212336822E0FAA3E0F5838A82228510D1
:1033730082851183123368E022123368E0FAA3E0F6
:103383002285108285118312338E22123348E02264
:1033930012338E1233492212338E2402F8A3E034FF
:1033A30000F97461221233B8E8FAE9FB74142212AB
:1033B30033B87406221233481233BF22E0F8A3E075
:1033C300F922E0FCA3E0F5838C82EAF0A3EBF02280
:1033D300E024FFF0A3E034FFF0740822E8F0A3E94F
:1033E300F0740222122912F8A3E022EAF0A3EBF010
:1033F300A3E4F0A3F0740622123368E8F0A3E9F023
:10340300741422851082851183E024010812343953
:10341300E8F0A3E9F0740422851082851183E02487
:1034230001F0A3E03400F02212290E2401F8123433
:1034330039E8F0A3E922A3E03400F985108285116D
:023443008322E2
:04000005000000D324
:00000001FF
