:020000040000FA
:030000000200D328
:03003B000212703E
:03004B00020709A0
:10008300020AF700000080FB1200E2B9000302003D
:10009300CDE490F1FF78DB79018002F0A3D8FCD99D
:1000A300FA90F2D9AA82AB839000E5784179018076
:1000B30015E493A3AC82AD838A828B83F0A3AA82D7
:1000C300AB838C828D83D8E9D9E71208EF120086BF
:1000D30075D0007581BF7510FF7511F102008B7922
:1000E300012200000000D7899D3F5C9D0600009619
:1000F300000001000000F40100000D0A6368616E56
:100103006E656C5F6D6170203A20000D0A20456EAC
:1001130064204368616E6E656C20696E69740D0AB4
:100123002000E066701008A3E066700A08A3E0668A
:10013300700408A3E06622E49366701308740193C5
:1001430066700C0874029366700508740393662244
:10015300C3E09608A3E09608A3E09608A3E09622DE
:10016300C3E49396087401939608740293960874F3
:1001730003939622E9799EC608CAC608CBC608CC63
:10018300C6C370207996CACBCC7019798ECBCC704C
:10019300137986CC700EF9802ACA33CACB33CBCC01
:1001A30033CC331930E7F2CCCBCA3350147004EAA2
:1001B30030E00DE4CA3ACACB3BCBCC3CCC5002096D
:1001C300C3E913C6CC182313C6CB18C6CA18C6F97D
:1001D3002212021420F01430E72B74FFFCFBFA7494
:1001E3007F8022E4FCFBFA7480801AB48008BC0090
:1001F300F2BB00EF800F50EBF9E4C39AFAE49BFBE8
:10020300E49CFCE499C6CC18C6CB18C6CA18C6F938
:1002130022E4C9C608CAC608CBC6D3330308CCC672
:100223003392F0C3947F402E94184019C9B9070440
:10023300CACBCC225025C309CA33CACB33CBCC3368
:10024300CC33D9F422F4600DC9CCC313CB13CBCA7E
:1002530013CAD9F6CC22E4FCFBFA2214FCFBFA22E3
:10026300E6C33318461846184622E7C3331947191D
:1002730047194722181818E6084608700AE608C303
:10028300337005E633F4220822191919E7094709DF
:10029300700AE709C3337005E733F4220922E6083D
:1002A3004608C3134608336002E633F422E70947DE
:1002B30009C3134709336002E733F422001202A192
:1002C300604F1202B06012E7548066F61202777034
:1002D3001112026D703B090909F4F618F618F618A5
:1002E300F62212028C701512026308080860EAE60F
:1002F300447FF618768018E4F618F622120263603B
:100303001612026D7012E4F608F608F608E6548039
:10031300F609090918181822EAC0E0EBC0E0ECC09E
:10032300E0EDC0E0E687F0A4FBACF008E687F0A4BC
:100333002CFCE435F0FA1809E687F0A42C4B600294
:100343007401CA35F0FCE433FB09E687F0D2F7A465
:100353002CCB35F0FC1908E687F0A42BCC35F0FB49
:10036300E433FD0819E687F0D2E7A42C4ACB35F035
:10037300CD3400FC09E687F0D2E7A42DCC35F0FD9F
:10038300E433FA0918E687F0D2F7A42CCD35F0CA86
:100393003400FC08E687F0D2E7D2F7A42ACC35F084
:1003A3007A7E20E70B0ACB33CBCD33CDCC33CC33A2
:1003B300CB3350147004ED30E00ED2F1E4CD3DCDDB
:1003C300CC3CCC3B5005DA05C2F1EB547FC6330875
:1003D300E63392F0FBE73309E733C39A502D2B70D2
:1003E300190C0D4C4D70151806E608C333700D201B
:1003F300F10AA2F013F6E418800B4024E4F630F07F
:1004030002768018F618F618F68024D33B145010A1
:1004130074FFA2F013F6187680E418F618F6800F2E
:10042300A2F013F618E63303F618ECF618EDF6D03F
:10043300E0FDD0E0FCD0E0FBD0E0FA22E026F008BB
:10044300A3E036F008A3E036F008A3E036F022E09C
:10045300F608A3E0F608A3E0F608A3E0F622E6F028
:1004630008A3E6F008A3E6F008A3E6F022CAC0E07A
:10047300E0A3C582CCC582C583CDC583F0A3C58265
:10048300CCC582C583CDC583DAE6D0E0CA22600D30
:1004930008C6A2E713C618C613C6D5E0F322C0D018
:1004A300251010AF08F510500205118008F5105003
:1004B300020511D2AFD0D0222510F582E43511F513
:1004C30083222510C582C0E0E51134FFC583C0E057
:1004D300E510C3958224F9F8E4C5A88583118582C4
:1004E30010C5A8E8CEF0A3E520F0A37808E608F04D
:1004F300A3DEFAEFF0A3E58124FBF8E608F0A3E618
:1005030008F0A30808E608F0A3E608F0A315811590
:1005130081D0E0FED0E0F815811581E8C0E0EEC09F
:10052300E022851183851082E0A3FEE0A3F5207805
:1005330008E0A3F608DFFAE0A3FFE0A3C0E0E0A32E
:10054300C0E0E0A3C0E0E0A3C0E0E4C5A88582105A
:10055300858311C5A8D083D0822274048000CCC0C7
:10056300E0EDC0E0E510C39CCCAD1150011D10AF10
:10057300068C108D1180068C108D11D2AF12047071
:10058300D0E0FDD0E0FC22D083D082ECC0E0EDC00F
:10059300E0EEC0E0EFC0E0E493A3FCE493A3FDE44A
:1005A30093A3FEE493A3FFEF4E4D4C601512060692
:1005B300EC24FFFCED34FFFDEE34FFFEEF34FFFFD0
:1005C30080E5E493A3FCE493A3FDE493A3FEE49307
:1005D300A3FFEF4E4D4C6015120643EC24FFFCEDD8
:1005E30034FFFDEE34FFFEEF34FFFF80E5D0E0FF84
:1005F300D0E0FED0E0FDD0E0FCE493A3C0E0E493C0
:10060300C0E022C0E0C0F088F0120163A8F0400708
:1006130012013AA8F0701AA3A3A3A3120163A8F0CE
:10062300A3A3A3A34013D0F0D0E0D0E0D0E0020511
:10063300F0A3A3A3A3A3A3A3A3A3A3D0F0D0E022D7
:10064300C0E0C0F088F012013AA8F0A3A3A3A370FE
:100653000BD0F0D0E0D0E0D0E00205F0A3A3D0F0BF
:10066300D0E022E9600B43C640E5BEA2E550FA8024
:100673000F53BEFBE5BEA2E650FA0053C680E5C6A3
:1006830043BE0422C082C08390F206E054F0F074AB
:100693001390F205F0741069702E74F290F1FFF06C
:1006A300740790F200F074DF90F201F074D990F2C5
:1006B30002F0742090F203F0741290F204F090F2BE
:1006C30006E0540F44408031742069702D74DF902C
:1006D300F1FFF074D990F200F074F290F201F0742B
:1006E3000790F202F0748090F203F0741490F20415
:1006F300F090F206E0540F4410F074F1F5D575D480
:10070300FFD083D08222C0E0C0D0E8C0E0E9C0E0DF
:10071300EAC0E0EBC0E0C082C083740F55E444D06C
:10072300F5E4E5DA90F233F0A3E4F0E5DBF990F2D7
:1007330033E0F0A3E049F075E200639001E59090A7
:10074300F233C3E094B3A3E0940C4018E490F23284
:10075300F090F220E004F0E0C3941540437401905C
:10076300F221803B90F233E0249EF8A3E034FDF9BC
:10077300C3E894C2E99404502790F233E0FAA3E06B
:10078300FB90F232E0C333F8E433F9E82422F58234
:10079300E934F2F583EAF0A3EBF090F232E004F0EF
:1007A300D083D082D0E0FBD0E0FAD0E0F9D0E0F8FB
:1007B300D0D0D0E03274F11204C5E9C333F8E43386
:1007C300F9E82422F8E934F2F988828983C3E094B2
:1007D300ABA3E09406400B8882898374AAF0A374C8
:1007E30006F088828983C3E09403A3E0940350094D
:1007F300888289837403F0A3F088828983E0F508F3
:10080300A3E0F509750A00750B00780812017790CB
:10081300F2DD780C1204527808790C1202BF7808C2
:100823001201D4AA08AB097F0802052574F7120444
:10083300C5741190F207F0743D90F208F07426909D
:10084300F209F0E490F20AF090F20BF0740190F2E6
:100853000CF0E490F211F090F212F090F217F09095
:10086300F218F0FA8025A3A3F074FC28F50874FFAE
:100873003400F50974017808120491E5082417F58A
:1008830082E50934F2F583E04BF00AEAC394085099
:100893004C90F23974DCF0A37405F0C0E0EAA2E0F6
:1008A300E492E0333354FCF8D0E0B800028004C390
:1008B30033D8FCFB8A82A882E82407F582E434F269
:1008C300F583EAC3940474DCA3A3A3A3A3A3509660
:1008D300F0EAC3132411F582E434F280A87F020204
:1008E3000525C287D28622D287C28622C29043FEC2
:1008F3000153F4FEC29143FE0253F4FDD29153F32C
:10090300BFD28643FD4053F37FD28743FD8053F428
:10091300F753FEF753F6F779001206661211D05318
:10092300E4DF75F14043E54053E6BF53E7BFC2DE62
:10093300D2B9D2AF43F304743F55FF4480F5FF743B
:10094300F855E54402F5E574F055E44409F5E4751A
:100953009C00759D06759E0175CC0075CE0075CB08
:10096300E590F2E112055D90F2E57808120452AACF
:1009730008AB09AC0AAD0B120C7574041204A11276
:10098300082F741090F21DF0E490F21FF090F21E05
:10099300F01208E57910120687439A01759110D277
:1009A300AF741190F207F0743D90F208F074269042
:1009B300F209F090F221E060FAEE90F20AF00EE410
:1009C30090F20BF090F23FE090F20CF0E490F21111
:1009D300F090F212F090F217F090F218F0FF8026E8
:1009E300A3A3F074FC2AF50A74FF3400F50B740119
:1009F300780A120491E50A2417F582E50B34F2F51F
:100A030083E04508F00FEFC39408506BEFC39408DD
:100A1300400B90F23B74ACF0A3741C800CEFF91202
:100A230007B890F23BEAF0A3EBF0E0540FC0E0EF1D
:100A3300A2E0E492E0333354FCF8D0E0B800028043
:100A430004C333D8FCF5088F82AA82EA2407F8E4AA
:100A530034F2F9EFC3940490F23BE088828983A3D4
:100A6300A3A3A3A3A340030209E3F0EFC313241139
:100A7300F582E434F280887901120C3DA29340346C
:100A830090F2E9780812045290F235780812043F84
:100A930090F235C082C08390F2ED7808120452D0F0
:100AA30083D0827808120153401A743490DF2EF0F9
:100AB300C291801090F2D9780812045290F23578DE
:100AC300081204611208E543D60175E10390F21B95
:100AD300E060FA1208EAE4F0792012121B90F23F68
:100AE300E0F9121253759C32759C64E59C70030205
:100AF30009BC80F7C0E0C0D0C082C08353E9EF5384
:100B03009BFCE59B90F21DE064207007740190F25A
:100B13001C8005740190F21BF0D083D082D0D0D01A
:100B2300E032C082C08343B404E5BC90F2A5F0A3D5
:100B3300E4F0E5BDF990F2A5E0F0A3E049F090F20E
:100B4300A5E0FAA3E0FBD083D0822253B4F3E5B44B
:100B5300EBF5BCEAF5BC2274F31204C58A0C8B0DC9
:100B63008909750800803C120B25EAC0E0E509F508
:100B7300F0D0E084E5F0F50AE50C250AF8E50D343C
:100B830000F988828983E0FCE50C2EFAE50D340038
:100B9300FB8A828B83E088828983F0EC8A828B8351
:100BA300F00508850882AE8285090A74FF250AF8D4
:100BB30074FF3400F9C3EE98E499A2D265D03340B0
:100BC300A67F0602052574F71204C57A008010EA91
:100BD300C0E02440F582E434F2F583D0E0F00AEA81
:100BE300C0E090F2A4E0FBD0E0C39B40E27A267B16
:100BF3003D120B4EE0F97A407BF2120B5A7AF17BED
:100C0300F212122A7E008018792012121B8E08E538
:100C1300082440F582E434F2F583E0F91212530E0E
:100C2300EEC0E090F2A4E0FAD0E0C39A40DA7A0290
:100C33007BF312122A7F02020525C082C08390F241
:100C43003FE029F0E0C0E090F2A4E0FAD0E0C39ADC
:100C53004009E0FA90F23FE0C39AF090F23FE024BB
:100C630040F582E434F2F583E090DF06F0D083D0E0
:100C7300822274F11204C58A088B098C0A8D0B74C5
:100C83000F1204BB780C120452740A90F2A4F07A87
:100C9300267B3D120BC990DF36E064016003020F2F
:100CA30078780C12058A00000000030000005C9DA8
:100CB3000600070DA03E0D00F10C58C70D00DB0C1C
:100CC300C50C74C090DF2EF0742390DF09F07431EB
:100CD30090DF0AF0743B804074C090DF2EF07422E2
:100CE30090DF09F074BB90DF0AF07413802A74C29A
:100CF30090DF2EF0742190DF09F0746290DF0AF028
:100D03007476801474C090DF2EF0741090DF09F0B5
:100D130074AC90DF0AF0744E90DF0BF07808120584
:100D23008A000000000200000000960000040E90FC
:100D3300D003003A0DBE0E90F2E1780C120125703B
:100D430004740C8002741290DF07F07412F0E490C4
:100D5300DF08F0742D90DF0CF0743B90DF0DF0741E
:100D63001390DF0EF0742290DF0FF074F890DF1011
:100D7300F0746290DF11F074B690DF1AF074109083
:100D8300DF1BF0741890DF14F0741D90DF15F074FE
:100D93001C90DF16F074C790DF17F0E490DF18F0B3
:100DA30074B090DF19F074EA90DF1CF090F2E178F0
:100DB3000C1201257004740A8002742A90DF1DF05E
:100DC300741F90DF1FF0748190DF23F0743590DF80
:100DD30024F0740990DF25F0780C12058A000000D6
:100DE3000003000000A03E0D00FC0D58C70D00FCE1
:100DF3000D38F60D00FC0DB60E90F23D744D021148
:100E03009F740690DF07F0E490DF08F074CA90DF68
:100E13000CF0748390DF0DF0741390DF0EF07422E6
:100E230090DF0FF074F890DF10F0743490DF11F05E
:100E3300745690DF1AF0741090DF1BF0741890DF73
:100E430014F0741690DF15F0746C90DF16F0744391
:100E530090DF17F0744090DF18F0749190DF19F071
:100E630074E990DF1CF090F2E1780C120125700414
:100E7300740A8002742A90DF1DF0741F90DF1FF044
:100E8300748190DF23F0743590DF24F0740990DFD0
:100E930025F0780C12058A0000000003000000A072
:100EA3003E0D00B60E58C70D00B60E38F60D00B64F
:100EB3000E9A1190F23D744902119F740690DF0758
:100EC300F0E490DF08F074F590DF0CF0748390DFAA
:100ED3000DF0741390DF0EF0742290DF0FF074F8AE
:100EE30090DF10F0741590DF11F0745690DF1AF054
:100EF300741090DF1BF0741890DF14F0741690DFF9
:100F030015F0746C90DF16F0740390DF17F07440E3
:100F130090DF18F0749190DF19F074E990DF1CF002
:100F230090F2E1780C1201257004740A8002742A8D
:100F330090DF1DF0741F90DF1FF0748190DF23F0AA
:100F4300743590DF24F0740990DF25F0780C1205D6
:100F53008A0000000003000000A03E0D00B60E58FA
:100F6300C70D00B60E38F60D00B60E700F90F23DA9
:100F7300744B02119FE0648160030211A374FE901D
:100F8300DF2EF0780C12058A000000000300000039
:100F930020ED2400D70F403B2500C70F60892500B3
:100FA300B70FA70F745F90DF09F0746290DF0AF048
:100FB3007476802E745E90DF09F0749D90DF0AF0E2
:100FC3007489801E745D90DF09F074D890DF0AF095
:100FD300749D800E745D90DF09F0741390DF0AF046
:100FE30074B190DF0BF0780812058A00000000024C
:100FF30000000090D003008E1020A10700041017FA
:1010030011741090DF07F0E490DF08F0740E90DFA6
:101013000CF0743B90DF0DF0747390DF0EF07442AC
:1010230090DF0FF074F890DF10F0E490DF11F074AC
:10103300B690DF1AF0741090DF1BF0741490DF1475
:10104300F0741D90DF15F0741C90DF16F074C790D8
:10105300DF17F0744090DF18F074B290DF19F0746A
:10106300EA90DF1CF0740A90DF1DF0741190DF1F0B
:10107300F0748890DF23F0743190DF24F0740B90C8
:10108300DF25F090F23D744802119F740A90DF0748
:10109300F0E490DF08F0742D90DF0CF0743B90DFE8
:1010A3000DF0747390DF0EF0742290DF0FF074F87C
:1010B30090DF10F0E490DF11F074B690DF1AF07453
:1010C3001090DF1BF0741490DF14F0741D90DF1583
:1010D300F0741C90DF16F074C790DF17F0E490DF14
:1010E30018F074B290DF19F074EA90DF1CF0740A00
:1010F30090DF1DF0741190DF1FF0748890DF23F0F0
:10110300743190DF24F0740B90DF25F090F23D747E
:101113004702119F740890DF07F0E490DF08F07432
:101123007890DF0CF0749390DF0DF0740390DF0E72
:10113300F0742290DF0FF074F890DF10F074449095
:10114300DF11F0745690DF1AF0741090DF1BF07407
:101153001490DF14F0741690DF15F0746C90DF16A2
:10116300F0744390DF17F0744090DF18F07491909F
:10117300DF19F074A990DF1CF0740A90DF1DF0747E
:101183001190DF1FF0748890DF23F0743190DF2417
:10119300F0740B90DF25F090F23D744AF0A3E4F075
:1011A300E490DF06F0743090DF13F0741B90DF30AF
:1011B300F0740490DF03F0744590DF04F0E490DFF3
:1011C30005F0741190DF02F07F0802052574FE55C7
:1011D300F14402F5F143F30CE5F353BEFBE5BEA284
:1011E300E650FA53C6B8E5C6E5C6A2E640FA43BEE2
:1011F3000475C22274E055C5440CF5C5438680537B
:10120300C4FE43C40253C4FB53C4F753C4EF53C4D3
:10121300DF53C4BF53C5DF225386FD89C1E586A2D0
:10122300E150FA5386FD22C082C0838A828B838079
:1012330006E0F912121BA3E070F7D083D08222E9F3
:10124300FAC3940A500574302AF92274372AF92212
:10125300EEC0E0E9FEC4540FF912124212121B74DD
:101263000F5EF912124212121BD0E0FE22C0E0C040
:10127300D0E8C0E0E9C0E0C082C083C28B90F2D85E
:10128300E0F8E5C1C0E0E824A7F582E434F2F58391
:10129300D0E0F074012808E43400F9743168700177
:1012A300E97006E490F2D8800590F2D8E004F0D01B
:0E12B30083D082D0E0F9D0E0F8D0D0D0E03285
:04000005000000D324
:00000001FF
